{
  "contractName": "Deployer",
  "abi": [
    {
      "anonymous": false,
      "inputs": [
        {
          "indexed": false,
          "name": "addr",
          "type": "address"
        }
      ],
      "name": "Created",
      "type": "event"
    },
    {
      "constant": false,
      "inputs": [
        {
          "name": "_code",
          "type": "bytes"
        }
      ],
      "name": "create",
      "outputs": [],
      "payable": false,
      "stateMutability": "nonpayable",
      "type": "function"
    }
  ],
  "bytecode": "0x608060405234801561001057600080fd5b506101a3806100206000396000f3fe6080604052600436106100405763ffffffff7c0100000000000000000000000000000000000000000000000000000000600035041663cf5ba53f8114610045575b600080fd5b34801561005157600080fd5b506100f86004803603602081101561006857600080fd5b81019060208101813564010000000081111561008357600080fd5b82018360208201111561009557600080fd5b803590602001918460018302840111640100000000831117156100b757600080fd5b91908080601f0160208091040260200160405190810160405280939291908181526020018383808284376000920191909152509295506100fa945050505050565b005b6000808251602084016000f5905073ffffffffffffffffffffffffffffffffffffffff8116151561012a57600080fd5b6040805173ffffffffffffffffffffffffffffffffffffffff8316815290517f1449abf21e49fd025f33495e77f7b1461caefdd3d4bb646424a3f445c4576a5b9181900360200190a1505056fea165627a7a723058208c005042039ca08ba19f290bb72ee2065c592fbbea0f52e27f2ed6ebab2af6450029",
  "deployedBytecode": "0x608060405260043610610041576000357c0100000000000000000000000000000000000000000000000000000000900463ffffffff168063cf5ba53f14610046575b600080fd5b34801561005257600080fd5b506100ad600480360381019080803590602001908201803590602001908080601f01602080910402602001604051908101604052809392919081815260200183838082843782019150505050505091929192905050506100af565b005b6000808251602084016000fb9050600073ffffffffffffffffffffffffffffffffffffffff168173ffffffffffffffffffffffffffffffffffffffff16141515156100f957600080fd5b7f1449abf21e49fd025f33495e77f7b1461caefdd3d4bb646424a3f445c4576a5b81604051808273ffffffffffffffffffffffffffffffffffffffff1673ffffffffffffffffffffffffffffffffffffffff16815260200191505060405180910390a150505600a165627a7a72305820ca139028fc266f407b81a24759b7e20743e12e0fc070290b9f4adb79a227e6e30029",
  "source": "pragma solidity ^0.4.24;\n\ncontract Deployer {\n    event Created(address addr);\n    function create(bytes memory _code) public {\n        address addr;\n        assembly {\n            addr := create2(0,add(_code,0x20),mload(_code),0)\n        }\n        require(addr!=address(0x0));\n        emit Created(addr);\n    } \n}",
  "sourcePath": "/Users/amb/Feina/iden3/contracts/contracts/Deployer.sol",
  "compiler": {
    "name": "solc",
    "version": "0.4.24+commit.e67f0147.Emscripten.clang"
  },
  "schemaVersion": "3.0.0-beta.0",
  "updatedAt": "2018-09-24T14:50:24.244Z"
}