{
  "contractName": "IDen3DelegateProxy",
  "abi": [
    {
      "constant": false,
      "inputs": [
        {
          "name": "_magic",
          "type": "bytes32"
        }
      ],
      "name": "acceptProxyRecoverer",
      "outputs": [],
      "payable": false,
      "stateMutability": "nonpayable",
      "type": "function"
    },
    {
      "constant": false,
      "inputs": [
        {
          "name": "_magic",
          "type": "bytes32"
        },
        {
          "name": "_proposed",
          "type": "address"
        }
      ],
      "name": "proposeProxyRecoverer",
      "outputs": [],
      "payable": false,
      "stateMutability": "nonpayable",
      "type": "function"
    },
    {
      "constant": false,
      "inputs": [
        {
          "name": "_magic",
          "type": "bytes32"
        },
        {
          "name": "_impl",
          "type": "address"
        }
      ],
      "name": "setProxyImpl",
      "outputs": [],
      "payable": false,
      "stateMutability": "nonpayable",
      "type": "function"
    },
    {
      "inputs": [
        {
          "name": "_operational",
          "type": "address"
        },
        {
          "name": "_relayer",
          "type": "address"
        },
        {
          "name": "_recoverer",
          "type": "address"
        },
        {
          "name": "_revoker",
          "type": "address"
        },
        {
          "name": "_impl",
          "type": "address"
        }
      ],
      "payable": false,
      "stateMutability": "nonpayable",
      "type": "constructor"
    },
    {
      "payable": false,
      "stateMutability": "nonpayable",
      "type": "fallback"
    },
    {
      "anonymous": false,
      "inputs": [
        {
          "indexed": false,
          "name": "operational",
          "type": "address"
        },
        {
          "indexed": false,
          "name": "relayer",
          "type": "address"
        },
        {
          "indexed": false,
          "name": "recoverer",
          "type": "address"
        },
        {
          "indexed": false,
          "name": "revoker",
          "type": "address"
        },
        {
          "indexed": false,
          "name": "impl",
          "type": "address"
        }
      ],
      "name": "Created",
      "type": "event"
    }
  ],
  "bytecode": "0x608060405234801561001057600080fd5b5060405160a0806108eb8339810180604052810190808051906020019092919080519060200190929190805190602001909291908051906020019092919080519060200190929190505050838282856100778261025e640100000000026401000000009004565b61008f816102a8640100000000026401000000009004565b50506100d8827f669b373ede2d753c867ddc72899bdfdaec8f8b75c38e74875af8e9f1574745f9600102600019166102f2640100000000026105b0179091906401000000009004565b61011f817fdea267dffcb92b0bd25897bac6eb57d8f594c51f6694fa9673b602fa6f8c3446600102600019166102f2640100000000026105b0179091906401000000009004565b50507f55353cd176c454ba526e09653a5a00a4cc4d1468d129208df7f84e0a359f688d8585858585604051808673ffffffffffffffffffffffffffffffffffffffff1673ffffffffffffffffffffffffffffffffffffffff1681526020018573ffffffffffffffffffffffffffffffffffffffff1673ffffffffffffffffffffffffffffffffffffffff1681526020018473ffffffffffffffffffffffffffffffffffffffff1673ffffffffffffffffffffffffffffffffffffffff1681526020018373ffffffffffffffffffffffffffffffffffffffff1673ffffffffffffffffffffffffffffffffffffffff1681526020018273ffffffffffffffffffffffffffffffffffffffff1673ffffffffffffffffffffffffffffffffffffffff1681526020019550505050505060405180910390a150505050506102f9565b6102a5817f1233c892137aa32e0f1c4b5359db9038b88dde2eb3927c5ee83dc8c9b3e17c0f600102600019166102f2640100000000026105b0179091906401000000009004565b50565b6102ef817f44f094e9bb0645dc669d08e0f0767e604381cfc211e15a1dbae98fd3b535f285600102600019166102f2640100000000026105b0179091906401000000009004565b50565b8082555050565b6105e3806103086000396000f300608060405260043610610057576000357c0100000000000000000000000000000000000000000000000000000000900463ffffffff1680632d5424d5146100b2578063855ac7ef146100e3578063c329064914610134575b34801561006357600080fd5b50600061006e610185565b505090506100af816000368080601f016020809104026020016040519081016040528093929190818152602001838380828437820191505050505050610225565b50005b3480156100be57600080fd5b506100e16004803603810190808035600019169060200190929190505050610254565b005b3480156100ef57600080fd5b506101326004803603810190808035600019169060200190929190803573ffffffffffffffffffffffffffffffffffffffff169060200190929190505050610338565b005b34801561014057600080fd5b506101836004803603810190808035600019169060200190929190803573ffffffffffffffffffffffffffffffffffffffff169060200190929190505050610413565b005b60008060006101ba7f1233c892137aa32e0f1c4b5359db9038b88dde2eb3927c5ee83dc8c9b3e17c0f600102600019166104ee565b6101ea7f44f094e9bb0645dc669d08e0f0767e604381cfc211e15a1dbae98fd3b535f285600102600019166104ee565b61021a7f9e67005d2760c1e41a2ea81ffa69f265791c0630cb5295c10534812389883dc4600102600019166104ee565b925092509250909192565b6000612710905060008083516020850186855a03f43d604051816000823e8260008114610250578282f35b8282fd5b6000807f75c3c288bdb83e39db5c3585932ba873ce82233d10024c56f7c300f66049cff26001026000191683600019161415156102d957610293610185565b505091506102d4826000368080601f016020809104026020016040519081016040528093929190818152602001838380828437820191505050505050610225565b610333565b6102e1610185565b925050503373ffffffffffffffffffffffffffffffffffffffff168173ffffffffffffffffffffffffffffffffffffffff1614151561031f57600080fd5b610328336104f9565b6103326000610536565b5b505050565b6000807f75c3c288bdb83e39db5c3585932ba873ce82233d10024c56f7c300f66049cff26001026000191684600019161415156103bd57610377610185565b505091506103b8826000368080601f016020809104026020016040519081016040528093929190818152602001838380828437820191505050505050610225565b61040d565b6103c5610185565b509150503373ffffffffffffffffffffffffffffffffffffffff168173ffffffffffffffffffffffffffffffffffffffff1614151561040357600080fd5b61040c83610536565b5b50505050565b6000807f75c3c288bdb83e39db5c3585932ba873ce82233d10024c56f7c300f66049cff260010260001916846000191614151561049857610452610185565b50509150610493826000368080601f016020809104026020016040519081016040528093929190818152602001838380828437820191505050505050610225565b6104e8565b6104a0610185565b509150503373ffffffffffffffffffffffffffffffffffffffff168173ffffffffffffffffffffffffffffffffffffffff161415156104de57600080fd5b6104e783610573565b5b50505050565b600081549050919050565b610533817f44f094e9bb0645dc669d08e0f0767e604381cfc211e15a1dbae98fd3b535f285600102600019166105b090919063ffffffff16565b50565b610570817f9e67005d2760c1e41a2ea81ffa69f265791c0630cb5295c10534812389883dc4600102600019166105b090919063ffffffff16565b50565b6105ad817f1233c892137aa32e0f1c4b5359db9038b88dde2eb3927c5ee83dc8c9b3e17c0f600102600019166105b090919063ffffffff16565b50565b80825550505600a165627a7a72305820387245fd295e4d233b04ff47b0b758d40bfdcef244f6bd87c173d75fdba80f280029",
  "source": "pragma solidity ^0.4.24;\n\nimport './lib/DelegateProxy.sol';\nimport './IDen3SlotStorage.sol';\n\n/**\n* @title a specialized delegate proxy for IDen3Impl\n*/\ncontract IDen3DelegateProxy is DelegateProxy, IDen3SlotStorage {\n    \n    event Created(address operational, \n        address relayer,      \n    \taddress recoverer,    \n    \taddress revoker,     \n    \taddress impl);\n\n    constructor(\n    \taddress _operational, \n        address _relayer,      \n    \taddress _recoverer,    \n    \taddress _revoker,     \n    \taddress _impl\n    )\n    DelegateProxy   (_impl, _recoverer)\n    IDen3SlotStorage(_relayer,_revoker)\n    public {\n        // we need this for the conterfactual, but is not stored\n    \t_operational;\n        emit Created(_operational,_relayer,_recoverer,_revoker,_impl);\n    }\n}\n",
  "sourcePath": "/Users/amb/Feina/iden3/contracts/contracts/IDen3DelegateProxy.sol",
  "compiler": {
    "name": "solc",
    "version": "0.4.24+commit.e67f0147.Emscripten.clang"
  },
  "schemaVersion": "3.0.0-beta.0",
  "updatedAt": "2018-10-13T17:04:21.551Z"
}