{
  "contractName": "IDen3Impl",
  "abi": [
    {
      "constant": true,
      "inputs": [
        {
          "name": "_hash",
          "type": "bytes32"
        },
        {
          "name": "_rsv",
          "type": "bytes"
        }
      ],
      "name": "ecrecover2",
      "outputs": [
        {
          "name": "",
          "type": "address"
        }
      ],
      "payable": false,
      "stateMutability": "pure",
      "type": "function"
    },
    {
      "constant": true,
      "inputs": [],
      "name": "lastNonce",
      "outputs": [
        {
          "name": "",
          "type": "uint256"
        }
      ],
      "payable": false,
      "stateMutability": "view",
      "type": "function"
    },
    {
      "constant": true,
      "inputs": [
        {
          "name": "_root",
          "type": "bytes32"
        },
        {
          "name": "_proof",
          "type": "bytes"
        },
        {
          "name": "_hi",
          "type": "bytes32"
        },
        {
          "name": "_ht",
          "type": "bytes32"
        },
        {
          "name": "_numlevels",
          "type": "uint256"
        }
      ],
      "name": "checkProof",
      "outputs": [
        {
          "name": "",
          "type": "bool"
        }
      ],
      "payable": false,
      "stateMutability": "pure",
      "type": "function"
    },
    {
      "constant": true,
      "inputs": [
        {
          "name": "_root",
          "type": "bytes32"
        },
        {
          "name": "_proof",
          "type": "bytes"
        },
        {
          "name": "_value",
          "type": "bytes"
        },
        {
          "name": "_indexlen",
          "type": "uint256"
        },
        {
          "name": "_numlevels",
          "type": "uint256"
        }
      ],
      "name": "checkExistenceProof",
      "outputs": [
        {
          "name": "",
          "type": "bool"
        }
      ],
      "payable": false,
      "stateMutability": "pure",
      "type": "function"
    },
    {
      "inputs": [],
      "payable": false,
      "stateMutability": "nonpayable",
      "type": "constructor"
    },
    {
      "constant": true,
      "inputs": [],
      "name": "revokated",
      "outputs": [
        {
          "name": "",
          "type": "bool"
        }
      ],
      "payable": false,
      "stateMutability": "view",
      "type": "function"
    },
    {
      "constant": false,
      "inputs": [],
      "name": "revoke",
      "outputs": [],
      "payable": false,
      "stateMutability": "nonpayable",
      "type": "function"
    },
    {
      "constant": false,
      "inputs": [
        {
          "name": "_relayer",
          "type": "address"
        }
      ],
      "name": "changeRelayer",
      "outputs": [],
      "payable": false,
      "stateMutability": "nonpayable",
      "type": "function"
    },
    {
      "constant": true,
      "inputs": [],
      "name": "info",
      "outputs": [
        {
          "name": "impl",
          "type": "address"
        },
        {
          "name": "recoverer",
          "type": "address"
        },
        {
          "name": "recovererprop",
          "type": "address"
        },
        {
          "name": "revoker",
          "type": "address"
        },
        {
          "name": "relay",
          "type": "address"
        }
      ],
      "payable": false,
      "stateMutability": "view",
      "type": "function"
    },
    {
      "constant": false,
      "inputs": [
        {
          "name": "_to",
          "type": "address"
        },
        {
          "name": "_data",
          "type": "bytes"
        },
        {
          "name": "_value",
          "type": "uint256"
        },
        {
          "name": "_gas",
          "type": "uint256"
        },
        {
          "name": "_sig",
          "type": "bytes"
        },
        {
          "name": "_auth",
          "type": "bytes"
        }
      ],
      "name": "forward",
      "outputs": [],
      "payable": false,
      "stateMutability": "nonpayable",
      "type": "function"
    }
  ],
  "bytecode": "0x60806040523480156200001157600080fd5b506000806200005f827f669b373ede2d753c867ddc72899bdfdaec8f8b75c38e74875af8e9f1574745f96001026000191662000102640100000000026200211d179091906401000000009004565b620000a9817fdea267dffcb92b0bd25897bac6eb57d8f594c51f6694fa9673b602fa6f8c34466001026000191662000102640100000000026200211d179091906401000000009004565b5050620000c6600062000109640100000000026401000000009004565b620000e1600062000156640100000000026401000000009004565b620000fc6000620001a3640100000000026401000000009004565b620001f0565b8082555050565b62000153817f1233c892137aa32e0f1c4b5359db9038b88dde2eb3927c5ee83dc8c9b3e17c0f6001026000191662000102640100000000026200211d179091906401000000009004565b50565b620001a0817f44f094e9bb0645dc669d08e0f0767e604381cfc211e15a1dbae98fd3b535f2856001026000191662000102640100000000026200211d179091906401000000009004565b50565b620001ed817f9e67005d2760c1e41a2ea81ffa69f265791c0630cb5295c10534812389883dc46001026000191662000102640100000000026200211d179091906401000000009004565b50565b61235780620002006000396000f300608060405260043610610099576000357c0100000000000000000000000000000000000000000000000000000000900463ffffffff1680630528094c1461009e578063370158ea1461015557806347f411551461027857806348d23829146103a157806352631ab4146103e4578063540d8db71461040f578063b6549f751461043e578063df293ef814610455578063f28d65741461050a575b600080fd5b3480156100aa57600080fd5b506101136004803603810190808035600019169060200190929190803590602001908201803590602001908080601f01602080910402602001604051908101604052809392919081815260200183838082843782019150505050505091929192905050506105f3565b604051808273ffffffffffffffffffffffffffffffffffffffff1673ffffffffffffffffffffffffffffffffffffffff16815260200191505060405180910390f35b34801561016157600080fd5b5061016a61069d565b604051808673ffffffffffffffffffffffffffffffffffffffff1673ffffffffffffffffffffffffffffffffffffffff1681526020018573ffffffffffffffffffffffffffffffffffffffff1673ffffffffffffffffffffffffffffffffffffffff1681526020018473ffffffffffffffffffffffffffffffffffffffff1673ffffffffffffffffffffffffffffffffffffffff1681526020018373ffffffffffffffffffffffffffffffffffffffff1673ffffffffffffffffffffffffffffffffffffffff1681526020018273ffffffffffffffffffffffffffffffffffffffff1673ffffffffffffffffffffffffffffffffffffffff1681526020019550505050505060405180910390f35b34801561028457600080fd5b5061039f600480360381019080803573ffffffffffffffffffffffffffffffffffffffff169060200190929190803590602001908201803590602001908080601f01602080910402602001604051908101604052809392919081815260200183838082843782019150505050505091929192908035906020019092919080359060200190929190803590602001908201803590602001908080601f0160208091040260200160405190810160405280939291908181526020018383808284378201915050505050509192919290803590602001908201803590602001908080601f01602080910402602001604051908101604052809392919081815260200183838082843782019150505050505091929192905050506106d4565b005b3480156103ad57600080fd5b506103e2600480360381019080803573ffffffffffffffffffffffffffffffffffffffff169060200190929190505050610a66565b005b3480156103f057600080fd5b506103f9610b24565b6040518082815260200191505060405180910390f35b34801561041b57600080fd5b50610424610b2a565b604051808215151515815260200191505060405180910390f35b34801561044a57600080fd5b50610453610b51565b005b34801561046157600080fd5b506104f06004803603810190808035600019169060200190929190803590602001908201803590602001908080601f01602080910402602001604051908101604052809392919081815260200183838082843782019150505050505091929192908035600019169060200190929190803560001916906020019092919080359060200190929190505050610c51565b604051808215151515815260200191505060405180910390f35b34801561051657600080fd5b506105d96004803603810190808035600019169060200190929190803590602001908201803590602001908080601f0160208091040260200160405190810160405280939291908181526020018383808284378201915050505050509192919290803590602001908201803590602001908080601f01602080910402602001604051908101604052809392919081815260200183838082843782019150505050505091929192908035906020019092919080359060200190929190505050610d6d565b604051808215151515815260200191505060405180910390f35b6000806000806020850151925060408501519150606085015160001a9050600186828585604051600081526020016040526040518085600019166000191681526020018460ff1660ff1681526020018360001916600019168152602001826000191660001916815260200194505050505060206040516020810390808403906000865af1158015610688573d6000803e3d6000fd5b50505060206040510351935050505092915050565b60008060008060006106ad610df9565b8095508196508297505050506106c1610e99565b91506106cb610ed0565b90509091929394565b6000806106df610b2a565b151515610754576040517f08c379a000000000000000000000000000000000000000000000000000000000815260040180806020018281038252600c8152602001807f6572725265766f6b61746564000000000000000000000000000000000000000081525060200191505060405180910390fd5b600080815480929190600101919050555060197f01000000000000000000000000000000000000000000000000000000000000000260007f010000000000000000000000000000000000000000000000000000000000000002306000548b8b8b8b60405180897effffffffffffffffffffffffffffffffffffffffffffffffffffffffffffff19167effffffffffffffffffffffffffffffffffffffffffffffffffffffffffffff19168152600101887effffffffffffffffffffffffffffffffffffffffffffffffffffffffffffff19167effffffffffffffffffffffffffffffffffffffffffffffffffffffffffffff191681526001018773ffffffffffffffffffffffffffffffffffffffff1673ffffffffffffffffffffffffffffffffffffffff166c010000000000000000000000000281526014018681526020018573ffffffffffffffffffffffffffffffffffffffff1673ffffffffffffffffffffffffffffffffffffffff166c0100000000000000000000000002815260140184805190602001908083835b60208310151561090657805182526020820191506020810190506020830392506108e1565b6001836020036101000a038019825116818451168082178552505050505050905001838152602001828152602001985050505050505050506040518091039020915061095282856105f3565b905061095e8184610f07565b8773ffffffffffffffffffffffffffffffffffffffff1685878960405180828051906020019080838360005b838110156109a557808201518184015260208101905061098a565b50505050905090810190601f1680156109d25780820380516001836020036101000a031916815260200191505b50915050600060405180830381858888f193505050501515610a5c576040517f08c379a000000000000000000000000000000000000000000000000000000000815260040180806020018281038252600b8152602001807f6572724661696c43616c6c00000000000000000000000000000000000000000081525060200191505060405180910390fd5b5050505050505050565b6000610a70610df9565b509150508073ffffffffffffffffffffffffffffffffffffffff163373ffffffffffffffffffffffffffffffffffffffff16141515610b17576040517f08c379a00000000000000000000000000000000000000000000000000000000081526004018080602001828103825260118152602001807f657272496e76616c69645265636f76657200000000000000000000000000000081525060200191505060405180910390fd5b610b20826117a8565b5050565b60005481565b600080610b35610ed0565b73ffffffffffffffffffffffffffffffffffffffff1614905090565b600080610b5c610df9565b50925050610b68610e99565b90508173ffffffffffffffffffffffffffffffffffffffff163373ffffffffffffffffffffffffffffffffffffffff161480610bcf57508073ffffffffffffffffffffffffffffffffffffffff163373ffffffffffffffffffffffffffffffffffffffff16145b1515610c43576040517f08c379a00000000000000000000000000000000000000000000000000000000081526004018080602001828103825260118152602001807f657272496e76616c69645265766f6b657200000000000000000000000000000081525060200191505060405180910390fd5b610c4d60006117a8565b5050565b600080600080600080600060208b01519550604094508893506002880392505b600083121515610d51578260019060020a02915060008287161115610ca157848b01519050602085019450610ca9565b600060010290505b60006001028460001916141580610cc857506000600102816000191614155b15610d43576000828b60019004161115610d1157808460405180836000191660001916815260200182600019166000191681526020019250505060405180910390209350610d42565b8381604051808360001916600019168152602001826000191660001916815260200192505050604051809103902093505b5b828060019003935050610c71565b8b60001916846000191614965050505050505095945050505050565b60008060008460208701209150856040518082805190602001908083835b602083101515610db05780518252602082019150602081019050602083039250610d8b565b6001836020036101000a03801982511681845116808217855250505050505090500191505060405180910390209050610dec8888848488610c51565b9250505095945050505050565b6000806000610e2e7f1233c892137aa32e0f1c4b5359db9038b88dde2eb3927c5ee83dc8c9b3e17c0f600102600019166117e5565b610e5e7f44f094e9bb0645dc669d08e0f0767e604381cfc211e15a1dbae98fd3b535f285600102600019166117e5565b610e8e7f9e67005d2760c1e41a2ea81ffa69f265791c0630cb5295c10534812389883dc4600102600019166117e5565b925092509250909192565b6000610ecb7fdea267dffcb92b0bd25897bac6eb57d8f594c51f6694fa9673b602fa6f8c3446600102600019166117e5565b905090565b6000610f027f669b373ede2d753c867ddc72899bdfdaec8f8b75c38e74875af8e9f1574745f9600102600019166117e5565b905090565b610f0f612233565b6000610f1961224d565b600080610f246122cc565b60008060606000610f348b6117f0565b9950610f47610f428b611820565b61189e565b98509850881515610fc0576040517f08c379a000000000000000000000000000000000000000000000000000000000815260040180806020018281038252600f8152602001807f657272556e7061636b4b636c61696d000000000000000000000000000000000081525060200191505060405180910390fd5b876000015173ffffffffffffffffffffffffffffffffffffffff168c73ffffffffffffffffffffffffffffffffffffffff16141515611067576040517f08c379a00000000000000000000000000000000000000000000000000000000081526004018080602001828103825260118152602001807f65727243616c6c65724d69736d6174636800000000000000000000000000000081525060200191505060405180910390fd5b876060015167ffffffffffffffff1642101515156110ed576040517f08c379a00000000000000000000000000000000000000000000000000000000081526004018080602001828103825260128152602001807f6572724265666f726556616c696446726f6d000000000000000000000000000081525060200191505060405180910390fd5b876080015167ffffffffffffffff164211151515611173576040517f08c379a00000000000000000000000000000000000000000000000000000000081526004018080602001828103825260128152602001807f657272416674657256616c6964556e74696c000000000000000000000000000081525060200191505060405180910390fd5b600060010288602001516000191614801561119957506000600102886040015160001916145b151561120d576040517f08c379a00000000000000000000000000000000000000000000000000000000081526004018080602001828103825260118152602001807f6572724e6f744f7065726174696f6e616c00000000000000000000000000000081525060200191505060405180910390fd5b6112168a611cd8565b9650611236876112258c611820565b8a60a001518b60e00151608c610c51565b15156112aa576040517f08c379a00000000000000000000000000000000000000000000000000000000081526004018080602001828103825260098152602001807f6572724b70726f6f66000000000000000000000000000000000000000000000081525060200191505060405180910390fd5b6112c8876112b78c611820565b8a60c001516000600102608c610c51565b151561133c576040517f08c379a000000000000000000000000000000000000000000000000000000000815260040180806020018281038252600a8152602001807f6572724b70726f6f664e0000000000000000000000000000000000000000000081525060200191505060405180910390fd5b61134d6113488b611820565b611d03565b955095508515156113c6576040517f08c379a000000000000000000000000000000000000000000000000000000000815260040180806020018281038252600f8152602001807f657272556e7061636b52636c61696d000000000000000000000000000000000081525060200191505060405180910390fd5b8660001916856040015160001916141515611449576040517f08c379a00000000000000000000000000000000000000000000000000000000081526004018080602001828103825260088152602001807f6572724b526f6f7400000000000000000000000000000000000000000000000081525060200191505060405180910390fd5b6114528a611cd8565b9350611472846114618c611820565b87606001518860a00151608c610c51565b15156114e6576040517f08c379a00000000000000000000000000000000000000000000000000000000081526004018080602001828103825260098152602001807f6572725270726f6f66000000000000000000000000000000000000000000000081525060200191505060405180910390fd5b611504846114f38c611820565b87608001516000600102608c610c51565b1515611578576040517f08c379a000000000000000000000000000000000000000000000000000000000815260040180806020018281038252600a8152602001807f6572725270726f6f664e0000000000000000000000000000000000000000000081525060200191505060405180910390fd5b6115818a6120d6565b925061158c8a611820565b91506115978a612109565b151561160b576040517f08c379a00000000000000000000000000000000000000000000000000000000081526004018080602001828103825260118152602001807f65727253747265616d546f6f4c6172676500000000000000000000000000000081525060200191505060405180910390fd5b61166984846040518083600019166000191681526020018267ffffffffffffffff1667ffffffffffffffff167801000000000000000000000000000000000000000000000000028152600801925050506040518091039020836105f3565b9050611673610ed0565b73ffffffffffffffffffffffffffffffffffffffff168173ffffffffffffffffffffffffffffffffffffffff16141515611715576040517f08c379a000000000000000000000000000000000000000000000000000000000815260040180806020018281038252600f8152602001807f657272496e76616c696452656c6179000000000000000000000000000000000081525060200191505060405180910390fd5b610e10830167ffffffffffffffff164210151561179a576040517f08c379a000000000000000000000000000000000000000000000000000000000815260040180806020018281038252600e8152602001807f6572724e6f74467265736853696700000000000000000000000000000000000081525060200191505060405180910390fd5b505050505050505050505050565b6117e2817f669b373ede2d753c867ddc72899bdfdaec8f8b75c38e74875af8e9f1574745f96001026000191661211d90919063ffffffff16565b50565b600081549050919050565b6117f8612233565b6000602083019050604080519081016040528082815260200184518301815250915050919050565b606060008061182e84612124565b91508161ffff166040519080825280601f01601f1916602001820160405280156118675781602001602082028038833980820191505090505b5092506020830190506118838185600001518461ffff16612157565b8161ffff168460000181815101915081815250505050919050565b60006118a861224d565b6118b0612233565b6118b9846117f0565b90507f3cfc3a1edbf691316fec9b75970fbfb2b0e8d8edfc6ec7628db77c4969403074600102600019166118ec82611cd8565b600019161415156119035760008292509250611cd2565b7b353f867ef725411de05e3d4b0a01c37cf7ad24bcc213141a000000546401000000000263ffffffff1916611937826121a2565b63ffffffff19161415156119515760008292509250611cd2565b600061195c826121cd565b63ffffffff161415156119755760008292509250611cd2565b61197e81612200565b826000019073ffffffffffffffffffffffffffffffffffffffff16908173ffffffffffffffffffffffffffffffffffffffff16815250506119be81611cd8565b826020019060001916908160001916815250506119da81611cd8565b826040019060001916908160001916815250506119f6816120d6565b826060019067ffffffffffffffff16908167ffffffffffffffff1681525050611a1e816120d6565b826080019067ffffffffffffffff16908167ffffffffffffffff16815250507f3cfc3a1edbf691316fec9b75970fbfb2b0e8d8edfc6ec7628db77c49694030746001027b353f867ef725411de05e3d4b0a01c37cf7ad24bcc213141a0000005464010000000002600084600001516040518085600019166000191681526020018463ffffffff191663ffffffff19168152601c018363ffffffff1663ffffffff167c01000000000000000000000000000000000000000000000000000000000281526004018273ffffffffffffffffffffffffffffffffffffffff1673ffffffffffffffffffffffffffffffffffffffff166c0100000000000000000000000002815260140194505050505060405180910390208260a0019060001916908160001916815250507f3cfc3a1edbf691316fec9b75970fbfb2b0e8d8edfc6ec7628db77c49694030746001027b353f867ef725411de05e3d4b0a01c37cf7ad24bcc213141a0000005464010000000002600184600001516040518085600019166000191681526020018463ffffffff191663ffffffff19168152601c018363ffffffff1663ffffffff167c01000000000000000000000000000000000000000000000000000000000281526004018273ffffffffffffffffffffffffffffffffffffffff1673ffffffffffffffffffffffffffffffffffffffff166c0100000000000000000000000002815260140194505050505060405180910390208260c001906000191690816000191681525050836040518082805190602001908083835b602083101515611c835780518252602082019150602081019050602083039250611c5e565b6001836020036101000a03801982511681845116808217855250505050505090500191505060405180910390208260e001906000191690816000191681525050611ccc81612109565b82925092505b50915091565b6000806000836000015191508151905060208460000181815101915081815250508092505050919050565b6000611d0d6122cc565b611d15612233565b611d1e846117f0565b90507f3cfc3a1edbf691316fec9b75970fbfb2b0e8d8edfc6ec7628db77c496940307460010260001916611d5182611cd8565b60001916141515611d6857600082925092506120d0565b7b9b9a76a0132a0814192c05c9321efc30c7286f6187f18fc6000000546401000000000263ffffffff1916611d9c826121a2565b63ffffffff1916141515611db657600082925092506120d0565b611dbf816121cd565b826000019063ffffffff16908163ffffffff1681525050611ddf81612200565b826020019073ffffffffffffffffffffffffffffffffffffffff16908173ffffffffffffffffffffffffffffffffffffffff1681525050611e1f81611cd8565b826040019060001916908160001916815250507f3cfc3a1edbf691316fec9b75970fbfb2b0e8d8edfc6ec7628db77c49694030746001027b9b9a76a0132a0814192c05c9321efc30c7286f6187f18fc60000005464010000000002836000015184602001516040518085600019166000191681526020018463ffffffff191663ffffffff19168152601c018363ffffffff1663ffffffff167c01000000000000000000000000000000000000000000000000000000000281526004018273ffffffffffffffffffffffffffffffffffffffff1673ffffffffffffffffffffffffffffffffffffffff166c010000000000000000000000000281526014019450505050506040518091039020826060019060001916908160001916815250507f3cfc3a1edbf691316fec9b75970fbfb2b0e8d8edfc6ec7628db77c49694030746001027b9b9a76a0132a0814192c05c9321efc30c7286f6187f18fc60000005464010000000002600184600001510184602001516040518085600019166000191681526020018463ffffffff191663ffffffff19168152601c018363ffffffff1663ffffffff167c01000000000000000000000000000000000000000000000000000000000281526004018273ffffffffffffffffffffffffffffffffffffffff1673ffffffffffffffffffffffffffffffffffffffff166c01000000000000000000000000028152601401945050505050604051809103902082608001906000191690816000191681525050836040518082805190602001908083835b602083101515612081578051825260208201915060208101905060208303925061205c565b6001836020036101000a03801982511681845116808217855250505050505090500191505060405180910390208260a0019060001916908160001916815250506120ca81612109565b82925092505b50915091565b60008060008360000151915081519050600884600001818151019150818152505060c0819060020a900492505050919050565b600081602001518260000151149050919050565b8082555050565b60008060008360000151915081519050600284600001818151019150818152505060f0819060020a900492505050919050565b60005b60208210151561217f578251845260208401935060208301925060208203915061215a565b6001826020036101000a0390508019835116818551168181178652505050505050565b60008060008360000151915081519050601c8460000181815101915081815250508092505050919050565b60008060008360000151915081519050600484600001818151019150818152505060e0819060020a900492505050919050565b6000806000836000015191508151905060148460000181815101915081815250506060819060020a900492505050919050565b604080519081016040528060008152602001600081525090565b61010060405190810160405280600073ffffffffffffffffffffffffffffffffffffffff1681526020016000801916815260200160008019168152602001600067ffffffffffffffff168152602001600067ffffffffffffffff1681526020016000801916815260200160008019168152602001600080191681525090565b60c060405190810160405280600063ffffffff168152602001600073ffffffffffffffffffffffffffffffffffffffff1681526020016000801916815260200160008019168152602001600080191681526020016000801916815250905600a165627a7a72305820d7dfce8961a2869586d2a85b1a5021617808eb27121e056ce0b8144e91822b550029",
  "source": "pragma solidity ^0.4.24;\n\nimport './lib/DelegateProxySlotStorage.sol';\nimport './lib/IDen3lib.sol';\nimport './IDen3SlotStorage.sol';\nimport './RootCommits.sol';\n\n/**\n* @title the implementation of an INDEN3 identity\n*/\ncontract IDen3Impl is\n   DelegateProxySlotStorage,\n   IDen3SlotStorage,\n   IDen3lib {\n\n   /// last nonce used\n   uint256 public lastNonce; \n\n   /** \n   * @dev IDen3Impl instance is used only as base code for IDen3DelegateProxy calls,\n   *      so, disable its usage by setting all storage to zero ; this is some\n   *      boilerplate at this moment but it is only done one time\n   */\n   constructor()\n   IDen3SlotStorage(0x0,0x0)\n   public {\n       setProxyImpl(0x0);\n       setProxyRecoverer(0x0);\n       setProxyRecovererProp(0x0);\n   }\n\n   /** \n   * @dev returns if the identity has been revokated\n   * @return true if revocated\n   */\n   function revokated() public view returns(bool) {\n       return getRelay()==0x0;\n   }\n\n   /** \n   * @dev revoke (disable) the identity by setting the relayer to zero\n   */\n   function revoke() public {\n        (,address recovery,) = getProxyInfo();\n        address revoker = getRevoker();\n        require (msg.sender == recovery || msg.sender == revoker,\"errInvalidRevoker\");\n        setRelay(0x0);\n   }\n\n   /** \n   * @dev change the relayer, this can only be done by recoverer\n   * @param _relayer to be used\n   */\n   function changeRelayer(address _relayer) public {\n        (,address recovery,) = getProxyInfo();\n        require (msg.sender == recovery, \"errInvalidRecover\");\n        setRelay(_relayer);\n   }\n\n   /** \n   * @dev returns information about this identity\n   */\n   function info() public view returns (\n       address impl, \n       address recoverer,\n       address recovererprop,\n       address revoker,\n       address relay\n   ) {\n        (impl, recoverer, recovererprop) = getProxyInfo();\n        revoker = getRevoker();\n        relay = getRelay();\n        return;\n   }\n\n   /** \n   * @dev checks if the authorization claims are correct\n   */\n   function mustVerifyAuth(\n       address _caller,\n       bytes   _auth\n  ) view internal {\n       \n       Memory.Cursor memory c = Memory.read(_auth);\n      \n       // 1. verify ksignclaim  --------------------------------------------------\n       \n       // check if unpacks ok, and if the caller is the key contained in the claim\n       (bool kok, KSignClaim memory kclaim) = unpackKSignClaim(c.readBytes());\n       require(kok,\"errUnpackKclaim\");\n       require(_caller==kclaim.key,\"errCallerMismatch\");\n       \n       // check the valid date range of the claim\n       require(now >= kclaim.validFrom, \"errBeforeValidFrom\");\n       require(now <= kclaim.validUntil, \"errAfterValidUntil\"); \n\n       // check if is an operational key\n       require(kclaim.appid==0x0 && kclaim.authz==0x0,\"errNotOperational\"); \n\n       // check the merkle proofs of existence and last_claim \n       bytes32 kclaimRoot = c.readBytes32();\n       require(checkProof(kclaimRoot,c.readBytes(),kclaim.hi,kclaim.ht,140),\"errKproof\");\n       require(checkProof(kclaimRoot,c.readBytes(),kclaim.hin,0x0,140),\"errKproofN\");\n\n       // 2. verify setrootclaim  --------------------------------------------------\n\n       // check if unpacks ok, and ksign root is in the setroot claim\n       (bool rok, SetRootClaim memory rclaim) = unpackSetRootClaim(c.readBytes());\n       require(rok,\"errUnpackRclaim\");\n       require(rclaim.root == kclaimRoot,\"errKRoot\");\n \n       // check the merkle proofs of existence and last_claim \n       bytes32 rclaimRoot = c.readBytes32();\n       require(checkProof(rclaimRoot,c.readBytes(),rclaim.hi,rclaim.ht,140),\"errRproof\");\n       require(checkProof(rclaimRoot,c.readBytes(),rclaim.hin,0x0,140),\"errRproofN\");\n       \n       uint64  rclaimSigDate = c.readUint64();\n       bytes   memory rclaimSig = c.readBytes();\n\n       require(c.eof(),\"errStreamTooLarge\");\n\n       // check the signature is done by the relayer\n       address signer = ecrecover2(\n           keccak256(rclaimRoot,rclaimSigDate),\n           rclaimSig\n       );\n\n       require(signer == getRelay(),\"errInvalidRelay\");\n\n       // check if the signature has been done in an hour timeframe\n       require(now < rclaimSigDate + 3600,\"errNotFreshSig\");\n   }\n\n   /** \n   * @dev call to another contract using this contract identity\n   * @param _to  is the destination\n   * @param _data to send (msg.data)\n   * @param _value to send (msg.value)\n   * @param _gas to be used as maximum\n   * @param _sig signature made by a KSign\n   * @param _auth are the claims + proofs of the KSign\n   */\n   function forward(\n       address _to,    \n       bytes   _data, \n       uint256 _value, \n       uint256 _gas, \n       bytes   _sig,\n       bytes   _auth\n   ) public {\n\n       // check the relayer has not been revokated\n       require(!revokated(),\"errRevokated\");\n        \n       // avoid reply attacks\n       lastNonce++;\n\n       // EIP191 compliant 0x19 0x00\n       bytes32 hash=keccak256(\n          byte(0x19),byte(0),\n          this,lastNonce,\n          _to,_data, _value, _gas\n       );\n    \n       // get the signature\n       address signer=IDen3lib.ecrecover2(hash,_sig);\n\n       // and verify if the signer has valid claims \n       mustVerifyAuth(signer,_auth);\n\n       // forward the call\n       require(_to.call.gas(_gas).value(_value)(_data),\"errFailCall\");\n   }\n   \n}\n\n",
  "sourcePath": "/Users/amb/Feina/iden3/contracts/contracts/IDen3Impl.sol",
  "compiler": {
    "name": "solc",
    "version": "0.4.24+commit.e67f0147.Emscripten.clang"
  },
  "schemaVersion": "3.0.0-beta.0",
  "updatedAt": "2018-10-13T20:20:07.521Z"
}