{
  "contractName": "RootCommits",
  "abi": [
    {
      "anonymous": false,
      "inputs": [
        {
          "indexed": false,
          "name": "addr",
          "type": "address"
        },
        {
          "indexed": false,
          "name": "blockN",
          "type": "uint64"
        },
        {
          "indexed": false,
          "name": "timestamp",
          "type": "uint64"
        },
        {
          "indexed": false,
          "name": "root",
          "type": "bytes32"
        }
      ],
      "name": "RootUpdated",
      "type": "event"
    },
    {
      "constant": false,
      "inputs": [
        {
          "name": "_root",
          "type": "bytes32"
        }
      ],
      "name": "setRoot",
      "outputs": [],
      "payable": false,
      "stateMutability": "nonpayable",
      "type": "function"
    },
    {
      "constant": true,
      "inputs": [
        {
          "name": "_address",
          "type": "address"
        }
      ],
      "name": "getRoot",
      "outputs": [
        {
          "name": "",
          "type": "bytes32"
        }
      ],
      "payable": false,
      "stateMutability": "view",
      "type": "function"
    },
    {
      "constant": true,
      "inputs": [
        {
          "name": "_address",
          "type": "address"
        },
        {
          "name": "_blockN",
          "type": "uint64"
        }
      ],
      "name": "getRootByBlock",
      "outputs": [
        {
          "name": "",
          "type": "bytes32"
        }
      ],
      "payable": false,
      "stateMutability": "view",
      "type": "function"
    },
    {
      "constant": true,
      "inputs": [
        {
          "name": "_address",
          "type": "address"
        },
        {
          "name": "_timestamp",
          "type": "uint64"
        }
      ],
      "name": "getRootByTime",
      "outputs": [
        {
          "name": "",
          "type": "bytes32"
        }
      ],
      "payable": false,
      "stateMutability": "view",
      "type": "function"
    }
  ],
  "bytecode": "0x608060405234801561001057600080fd5b50610e88806100206000396000f300608060405260043610610062576000357c0100000000000000000000000000000000000000000000000000000000900463ffffffff168063079cf76e1461006757806318c9990b146100c6578063ab481d2314610139578063dab5f340146101ac575b600080fd5b34801561007357600080fd5b506100a8600480360381019080803573ffffffffffffffffffffffffffffffffffffffff1690602001909291905050506101dd565b60405180826000191660001916815260200191505060405180910390f35b3480156100d257600080fd5b5061011b600480360381019080803573ffffffffffffffffffffffffffffffffffffffff169060200190929190803567ffffffffffffffff16906020019092919050505061028c565b60405180826000191660001916815260200191505060405180910390f35b34801561014557600080fd5b5061018e600480360381019080803573ffffffffffffffffffffffffffffffffffffffff169060200190929190803567ffffffffffffffff169060200190929190505050610698565b60405180826000191660001916815260200191505060405180910390f35b3480156101b857600080fd5b506101db6004803603810190808035600019169060200190929190505050610af9565b005b6000806000808473ffffffffffffffffffffffffffffffffffffffff1673ffffffffffffffffffffffffffffffffffffffff16815260200190815260200160002060016000808673ffffffffffffffffffffffffffffffffffffffff1673ffffffffffffffffffffffffffffffffffffffff168152602001908152602001600020805490500381548110151561026f57fe5b906000526020600020906002020160010154905080915050919050565b600080600080438567ffffffffffffffff16101515610313576040517f08c379a00000000000000000000000000000000000000000000000000000000081526004018080602001828103825260128152602001807f6572724e6f467574757265416c6c6f776564000000000000000000000000000081525060200191505060405180910390fd5b6000925060016000808873ffffffffffffffffffffffffffffffffffffffff1673ffffffffffffffffffffffffffffffffffffffff168152602001908152602001600020805490500391505b818311151561068e57600283830181151561037657fe5b0490508467ffffffffffffffff166000808873ffffffffffffffffffffffffffffffffffffffff1673ffffffffffffffffffffffffffffffffffffffff168152602001908152602001600020828154811015156103cf57fe5b906000526020600020906002020160000160009054906101000a900467ffffffffffffffff1667ffffffffffffffff161415610469576000808773ffffffffffffffffffffffffffffffffffffffff1673ffffffffffffffffffffffffffffffffffffffff1681526020019081526020016000208181548110151561045057fe5b906000526020600020906002020160010154935061068f565b6000808773ffffffffffffffffffffffffffffffffffffffff1673ffffffffffffffffffffffffffffffffffffffff168152602001908152602001600020818154811015156104b457fe5b906000526020600020906002020160000160009054906101000a900467ffffffffffffffff1667ffffffffffffffff168567ffffffffffffffff1611801561058257506000808773ffffffffffffffffffffffffffffffffffffffff1673ffffffffffffffffffffffffffffffffffffffff1681526020019081526020016000206001820181548110151561054557fe5b906000526020600020906002020160000160009054906101000a900467ffffffffffffffff1667ffffffffffffffff168567ffffffffffffffff16105b156105eb576000808773ffffffffffffffffffffffffffffffffffffffff1673ffffffffffffffffffffffffffffffffffffffff168152602001908152602001600020818154811015156105d257fe5b906000526020600020906002020160010154935061068f565b6000808773ffffffffffffffffffffffffffffffffffffffff1673ffffffffffffffffffffffffffffffffffffffff1681526020019081526020016000208181548110151561063657fe5b906000526020600020906002020160000160009054906101000a900467ffffffffffffffff1667ffffffffffffffff168567ffffffffffffffff16111561068257600181019250610689565b6001810391505b61035f565b5b50505092915050565b6000806000806000428667ffffffffffffffff16101515610721576040517f08c379a00000000000000000000000000000000000000000000000000000000081526004018080602001828103825260128152602001807f6572724e6f467574757265416c6c6f776564000000000000000000000000000081525060200191505060405180910390fd5b60008060008973ffffffffffffffffffffffffffffffffffffffff1673ffffffffffffffffffffffffffffffffffffffff16815260200190815260200160002080549050141561077357839450610aef565b6000925060016000808973ffffffffffffffffffffffffffffffffffffffff1673ffffffffffffffffffffffffffffffffffffffff168152602001908152602001600020805490500391505b8183111515610aee5760028383018115156107d657fe5b0490508567ffffffffffffffff166000808973ffffffffffffffffffffffffffffffffffffffff1673ffffffffffffffffffffffffffffffffffffffff1681526020019081526020016000208281548110151561082f57fe5b906000526020600020906002020160000160089054906101000a900467ffffffffffffffff1667ffffffffffffffff1614156108c9576000808873ffffffffffffffffffffffffffffffffffffffff1673ffffffffffffffffffffffffffffffffffffffff168152602001908152602001600020818154811015156108b057fe5b9060005260206000209060020201600101549450610aef565b6000808873ffffffffffffffffffffffffffffffffffffffff1673ffffffffffffffffffffffffffffffffffffffff1681526020019081526020016000208181548110151561091457fe5b906000526020600020906002020160000160089054906101000a900467ffffffffffffffff1667ffffffffffffffff168667ffffffffffffffff161180156109e257506000808873ffffffffffffffffffffffffffffffffffffffff1673ffffffffffffffffffffffffffffffffffffffff168152602001908152602001600020600182018154811015156109a557fe5b906000526020600020906002020160000160089054906101000a900467ffffffffffffffff1667ffffffffffffffff168667ffffffffffffffff16105b15610a4b576000808873ffffffffffffffffffffffffffffffffffffffff1673ffffffffffffffffffffffffffffffffffffffff16815260200190815260200160002081815481101515610a3257fe5b9060005260206000209060020201600101549450610aef565b6000808873ffffffffffffffffffffffffffffffffffffffff1673ffffffffffffffffffffffffffffffffffffffff16815260200190815260200160002081815481101515610a9657fe5b906000526020600020906002020160000160089054906101000a900467ffffffffffffffff1667ffffffffffffffff168667ffffffffffffffff161115610ae257600181019250610ae9565b6001810391505b6107bf565b5b5050505092915050565b60008060003373ffffffffffffffffffffffffffffffffffffffff1673ffffffffffffffffffffffffffffffffffffffff168152602001908152602001600020805490501115610ca057436000803373ffffffffffffffffffffffffffffffffffffffff1673ffffffffffffffffffffffffffffffffffffffff16815260200190815260200160002060016000803373ffffffffffffffffffffffffffffffffffffffff1673ffffffffffffffffffffffffffffffffffffffff1681526020019081526020016000208054905003815481101515610bd357fe5b906000526020600020906002020160000160009054906101000a900467ffffffffffffffff1667ffffffffffffffff1614151515610c9f576040517f08c379a00000000000000000000000000000000000000000000000000000000081526004018080602001828103825260218152602001807f6e6f206d756c7469706c652073657420696e207468652073616d6520626c6f6381526020017f6b0000000000000000000000000000000000000000000000000000000000000081525060400191505060405180910390fd5b5b6000803373ffffffffffffffffffffffffffffffffffffffff1673ffffffffffffffffffffffffffffffffffffffff1681526020019081526020016000206060604051908101604052804367ffffffffffffffff1681526020014267ffffffffffffffff16815260200183600019168152509080600181540180825580915050906001820390600052602060002090600202016000909192909190915060008201518160000160006101000a81548167ffffffffffffffff021916908367ffffffffffffffff16021790555060208201518160000160086101000a81548167ffffffffffffffff021916908367ffffffffffffffff160217905550604082015181600101906000191690555050507f1d3d3c252bc04ff83e8069c09279b4d8acb5264996a680b6d7dcf20db2b7417b33434284604051808573ffffffffffffffffffffffffffffffffffffffff1673ffffffffffffffffffffffffffffffffffffffff1681526020018467ffffffffffffffff1667ffffffffffffffff1681526020018367ffffffffffffffff1667ffffffffffffffff168152602001826000191660001916815260200194505050505060405180910390a1505600a165627a7a7230582068007ba487a3f68a5936e0e2dba4297c68c6d42f0dd9fbd0238a12f734d092be0029",
  "source": "pragma solidity ^0.4.23;\n\n/*\n* not finished\n*/\ncontract RootCommits {\n\n  mapping(address => MRoot[]) identities;\n\n  struct MRoot {\n    uint64 BlockN;\n    uint64 BlockTimestamp;\n    bytes32 Root;\n  }\n\n  // event called when a root is updated\n  event RootUpdated(address addr, uint64 blockN, uint64 timestamp, bytes32 root);\n\n  function setRoot(bytes32 _root) public {\n      if(identities[msg.sender].length>0){\n        require(identities[msg.sender][identities[msg.sender].length-1].BlockN!=block.number, \"no multiple set in the same block\");\n      }\n      identities[msg.sender].push(MRoot(uint64(block.number), uint64(block.timestamp), _root));\n      emit RootUpdated(msg.sender, uint64(block.number), uint64(block.timestamp), _root);\n  }\n\n  function getRoot(address _address) public view returns (bytes32){\n      bytes32 root = identities[_address][identities[_address].length-1].Root;\n      return root;\n  }\n\n  /*\n  * binary search\n  */\n  function getRootByBlock(address _address, uint64 _blockN) public view returns (bytes32) {\n      require(_blockN<block.number, \"errNoFutureAllowed\");\n      uint min = 0;\n      uint max = identities[_address].length-1;\n      while(min<=max) {\n          uint mid = (max + min)/ 2;\n          if(identities[_address][mid].BlockN==_blockN) {\n              return identities[_address][mid].Root;\n          } else if((_blockN>identities[_address][mid].BlockN) && (_blockN<identities[_address][mid+1].BlockN)) {\n              return identities[_address][mid].Root;\n          } else if(_blockN>identities[_address][mid].BlockN) {\n              min = mid + 1;\n          } else {\n              max = mid -1;\n          }\n      }\n      return;\n  }\n  function getRootByTime(address _address, uint64 _timestamp) public view returns (bytes32) {\n      require(_timestamp<block.timestamp, \"errNoFutureAllowed\");\n      if(identities[_address].length==0) {\n        bytes32 emptyRoot;\n        return emptyRoot;\n      }\n      uint min = 0;\n      uint max = identities[_address].length-1;\n      while(min<=max) {\n          uint mid = (max + min)/ 2;\n          if(identities[_address][mid].BlockTimestamp==_timestamp) {\n              return identities[_address][mid].Root;\n          } else if((_timestamp>identities[_address][mid].BlockTimestamp) && (_timestamp<identities[_address][mid+1].BlockTimestamp)) {\n              return identities[_address][mid].Root;\n          } else if(_timestamp>identities[_address][mid].BlockTimestamp) {\n              min = mid + 1;\n          } else {\n              max = mid -1;\n          }\n      }\n      return;\n  }\n\n}\n",
  "sourcePath": "/Users/amb/Feina/iden3/contracts/contracts/RootCommits.sol",
  "compiler": {
    "name": "solc",
    "version": "0.4.24+commit.e67f0147.Emscripten.clang"
  },
  "schemaVersion": "3.0.0-beta.0",
  "updatedAt": "2018-10-01T14:06:45.982Z"
}